:1000000018EF00F0EA6A0A0EE96EEF50D8B417EF65
:1000100000F0010E016E006A002EFED7012EFBD704
:100020004A0E006E002EFED700D0EF2EF2D712003F
:10003000F86AD09EC150C00B0F09C16E070EB46E96
:1000400094948B940C0EBD6EB76AB66A94928B92A0
:10005000BA6E000E0509CA6E180ECB6E066A640EE3
:10006000056E086A076E06C002F005C001F0023294
:10007000013202320132023201C0BEFF02320230CE
:10008000300B006EBD50CF0B0010BD6E08C002F0EB
:1000900007C001F00232013202320132023201C0E5
:1000A000BBFF02320230300B006EBA50CF0B001093
:1000B000BA6E8B8894988B9A949A8B9C949C8B8E16
:1000C000949E0C0E096EFA0E0A6E9CDF092EFBD769
:1000D0008B9894988B8A949A8B8C949C8B9E949EEC
:1000E0000C0E096EFA0E0A6E8DDF092EFBD7E1D7D2
:0200F00003000B
:020000040030CA
:0E00000000C03E1E0007A1000FC00FE00F4021
:00000001FF
;PIC18F4550
;CRC=0B98  CREATED="01-nov-21 11:35"
