:040000006CEF00F0B1
:08000800046ED8CF05F0E0CF33
:1000100006F00001E9CF0CF0EACF07F0E1CF08F0DD
:10002000E2CF09F0D9CF0AF0DACF0BF0F3CF12F01C
:10003000F4CF13F0FACF14F000C00EF001C00FF0AF
:1000400002C010F003C011F0F2A82AEF00F0F2B2E3
:1000500061EF00F0F0A630EF00F0F0B057EF00F0E5
:10006000F0A836EF00F0F0B25CEF00F00EC000F048
:100070000FC001F010C002F011C003F00CC0E9FF86
:1000800007C0EAFF078E08C0E1FF09C0E2FF0AC00F
:10009000D9FF0BC0DAFF12C0F3FF13C0F4FF14C086
:1000A000FAFF045006C0E0FF05C0D8FF100095928B
:1000B0008C72F09036EF00F095948C74F09236EFDD
:1000C00000F095908C7016B002D0F19C01D0F18CAC
:1000D0001670F29236EF00F0F86AD09E078E1690F6
:1000E000C150C00B0F09C16E070EB46EC00EF212E4
:1000F000F288F086F19AF088F188F18CFFD703003E
:020000040030CA
:0E00000000C03E1E0007A1000FC00FE00F4021
:00000001FF
;PIC18F4550
;CRC=6970  CREATED="07-ago-18 23:52"
