:1000000026EF01F0F76A140FF66E000EF7220900D2
:10001000F5501200280C01060C4D4F444F20303A89
:100020000A4D414E55414C000C4D4F444F20313A42
:100030000A53454D492D4155544F4D415449434F65
:1000400000000C4D4F444F20323A0A4155544F4D59
:10005000415449434F00EA6A100EE96EEF500DE03B
:10006000060E016E006A002EFED7012EFBD77B0E16
:10007000006E002EFED7EF2EF3D7120017B002D07D
:100080008C9801D08C88959817B202D08C9A01D0A8
:100090008C8A959A17B402D08C9C01D08C8C959C3C
:1000A00017B602D08C9E01D08C8E959E0000969241
:1000B0008D82030E006E002EFED796928D92120056
:1000C00096948D94630E006E002EFED700D01452CD
:1000D00003E096948D8402D096948D9400009692BD
:1000E0008D921538166E0F0E161616C017F0C6DF55
:1000F00015500F0B166E176EC1DF120096948D947B
:1001000096928D920F0E106EA6DF0C6A0C500208AC
:1001100008E3030E176EB2DF050E106E9CDF0C2A8B
:10012000F5D7020E176EAADF0C6A0C5003080CE319
:10013000036A0C5067DF0D6E146A156EC1DF050E81
:10014000106E89DF0C2AF1D73AEF01F0036A0850EC
:10015000040FE96E000E0320EA6EEFCF12F0010EDD
:10016000105C122612508009136E146A156EA8DFF7
:10017000DCEF00F00F500C0A05E0060A0CE0020A62
:1001800011E015D0146A010E156E9ADF086A020E8E
:10019000106E61DF11D0082A010E106E08C011F038
:1001A000D5D70AD0146A100E156E8ADF05D0010E5D
:1001B000146E0FC015F084DFE8EF00F00900F5526F
:1001C0000CE0F6CF0DF0F7CF0EF0F5CF0FF0D2D751
:1001D0000DC0F6FF0EC0F7FFF1D712000C50000A59
:1001E00005E0010A13E0030A21E02FD08A9A939ACE
:1001F0008A9C939C8A8E939E8B8294928B949494E7
:10020000180EF66E000EF76ED9DF1FD08A9A939AF9
:100210008A8C939C8A8E939E8B9294928B949494C6
:10022000280EF66E000EF76EC9DF0FD08A8A939AF9
:100230008A8C939C8A8E939E8B8294928B849494C6
:10024000420EF66E000EF76EB9DF1200F86AD09E0D
:10025000086A096A0B6A0A6AC150C00B0F09C16EAD
:10026000070EB46E046A400E056E100E066E500E38
:10027000076E44D709C00CF0B1DF938081B009D07C
:10028000095201E0090609C00CF0A8DF938081A0A3
:10029000FDD7938281B20AD00950010801E3092AEF
:1002A00009C00CF09BDF938281A2FDD7E6D7030043
:020000040030CA
:0E0000003FCC3E1E0087A1000FC00FE00F4056
:00000001FF
;PIC18F4550
;CRC=6B75  CREATED="28-out-21 11:57"
