:040000000AEF01F012
:08000800046ED8CF05F0E0CF33
:1000100006F00001E9CF0CF0EACF07F0E1CF08F0DD
:10002000E2CF09F0D9CF0AF0DACF0BF0F3CF12F01C
:10003000F4CF13F0FACF14F000C00EF001C00FF0AF
:1000400002C010F003C011F09DAA2AEF00F09EBA82
:100050005CEF00F00EC000F00FC001F010C002F025
:1000600011C003F00CC0E9FF07C0EAFF078E08C00B
:10007000E1FF09C0E2FF0AC0D9FF0BC0DAFF12C0DE
:10008000F3FF13C0F4FF14C0FAFF045006C0E0FFF2
:1000900005C0D8FF10000900F5520DE0F6CF22F0A0
:1000A000F7CF23F0F5509EA8FED7AD6E22C0F6FF25
:1000B00023C0F7FFF0D712009EAA19D09EAAFED740
:1000C000AECF21F021504C0807E18C809590F40EC2
:1000D000F66E000EF76EDFDF2150440807E18C90CA
:1000E0009590000EF66E010EF76ED5DFE5D79E9A5D
:1000F0002AEF00F02D3E204C49474F55200A0D00B5
:100100002D3E204445534C49474F55200A0D0000D1
:100110004C554D494E4F53494441444520256C753B
:10012000200A0D000900F6CF19F0F7CF1AF0F550AC
:100130009EA8FED7AD6E19C0F6FF1AC0F7FF182EA5
:10014000F1D71200EACF20F0E9CF1FF01938F009FB
:100150001B6E1B26E20F1C6E320F1E6E19500F0B0A
:100160001C261C261E26E90F1D6E1D261D2618386E
:100170000F0B1D261E261D361E361E1E1E3618503F
:100180000F0B1E261B36070E1A6E0A0E1D061E26A4
:10019000FDE31C061D26FDE31B061C26FDE31A06D7
:1001A0001B26FDE3EA6A1A0EE96E070E1F141F9C58
:1001B000E9261E0EE95CD8B41F8CEF50006E08E1F2
:1001C0001FBC06D01FB80CD01FB602D0200E03D023
:1001D0001F861F98300E002600509EA8FED7AD6ED9
:1001E000EE501FACE6D742EF01F0EA6A190EE96E55
:1001F000EF500EE0010E016E006A002EFED7012EB8
:10020000FBD74A0E006E002EFED700D0EF2EF2D79D
:100210004EEF01F0F86AD09E078EB896190EAF6EB9
:10022000A60EAC6E900EAB6EC150C00B0F09C16E26
:10023000070EB46EC00EF2129D8AC050C00B0709A3
:10024000C06EC08EC280C150C00B0E09C16E000EC0
:10025000016EC250C30B0110C26EC282C2B2FED781
:10026000C3CF16F0C4CF17F0100EF66E010EF76E66
:100270000D0E186E57DF100EE96E17C019F016C07C
:1002800018F060D7200EF66E010EF76E030E186E92
:1002900049DF040E186EFA0E196EA7D7182EFBD779
:0402A000DCD70300A4
:020000040030CA
:0E00000000C03E1E0007A1000FC00FE00F4021
:00000001FF
;PIC18F4550
;CRC=073F  CREATED="22-jul-18 19:38"
