:100000003BEF03F0F76A140FF66E000EF7220900BB
:10001000F5501200280C01060C4461646F3A20254B
:1000200066000A53616C766F3A20256320256600CE
:10003000EA6A220EE96EEF500DE0060E016E006ACC
:10004000002EFED7012EFBD77B0E006E002EFED7B2
:10005000EF2EF3D7120029B002D08C9801D08C88F3
:10006000959829B202D08C9A01D08C8A959A29B49D
:1000700002D08C9C01D08C8C959C29B602D08C9E91
:1000800001D08C8E959E000096928D82030E006E9C
:10009000002EFED796928D92120096948D94630E48
:1000A000006E002EFED700D0265203E096948D8479
:1000B00002D096948D94000096928D922738286EE7
:1000C0000F0E281628C029F0C6DF27500F0B286E08
:1000D000296EC1DF120096948D9496928D920F0E28
:1000E000226EA6DF146A1450020808E3030E296E7C
:1000F000B2DF050E226E9CDF142AF5D7020E296EA0
:10010000AADF146A145003080CE3036A14507ADF60
:10011000156E266A276EC1DF050E226E89DF142A4E
:10012000F1D744EF03F08E0E006E15C001F014C03D
:1001300002F0036A015209E102C001F0026A080EEE
:10014000005E015202E1006A08D0D89001BE04D0DE
:10015000023601360006F9D7019E75EF03F01850FC
:10016000D8B4A5D0246E1C50D8B4A1D0245E05E329
:100170007F0E2426D8B09BD006D0810E245ED8A056
:1001800096D0D8B494D024C000F0016A026A036A01
:10019000236A19C022F0228E1AC021F01BC020F061
:1001A000190E246E1F50205E0DE2010E215E0AE240
:1001B000225E08E2235E06E2232A222A212A1F5019
:1001C000202628D01E50215E12E2010E225E0FE290
:1001D000235E0DE2232A222A1E5021261F502026AC
:1001E00019E3212A17E1222A15E1232A13D01D50F1
:1001F0008009225E0EE2010E235E0BE2232A1D50CF
:10020000800922261E502126E9E3222AE7E1232A3B
:10021000E5D70380242E01D00BD0D890203621368C
:1002200022362336D8900336023601362536BAD721
:1002300025A006D0D890013202320332253202D0F6
:10024000000635E025BE1ED0D89020362136223655
:1002500023361F50205E07E2010E215E04E2225E7B
:1002600002E2235E1AE31E50215E05E2010E225EC9
:1002700002E2235E12E31D508009225E03E2010EBA
:10028000235E0BE3032A09E1022A07E1012A05E1C3
:10029000002A0DE001320232033219C024F01D5051
:1002A000241A24AE02D0018E06D0019E04D0006A2A
:1002B000016A026A036A8DEF03F02150D8B471D04D
:1002C000006E2550D8B46DD0002604E3810E0026C0
:1002D00068E204D07F0E005E64E363E022C029F090
:1002E0002650291A228E268E24502802F4CF2BF075
:1002F00023502702F4CF03F0F3CF2AF02802F35063
:100300002B26F4502A22000E032224502702F350F9
:100310002B26F4502A22000E026A032202222250C7
:100320002802F3502A26F4500322000E0222225003
:100330002702F3500326F4500222000E016A012224
:1003400024502602F3502A26F4500322000E0222E3
:10035000012223502602F3500326F4500222000EFD
:10036000012222502602F3500226F4500122002AD4
:1003700001BE05D02A360336023601360006000ECD
:100380002AAE0AD0032A02220122015005E10250BE
:1003900003E1035001E1002A29BE018E29AE019E2E
:1003A00004D0006A016A026A036A1200232C01D099
:1003B00003D0400E246E01D0246A010E225C242654
:1003C00024508009256E266A276E67DE08EF02F04A
:1003D00021500C0A05E0060A0BE0020A0FE013D0D8
:1003E000266A010E276E59DE020E226E21DE10D023
:1003F000010E226E020E236ED9D70AD0266A100E85
:10040000276E4BDE05D0010E266E21C027F045DE9B
:1004100012000900F6CF15F0F7CF16F0F5CF21F056
:10042000D7DF15C0F6FF16C0F7FF142EF2D7120063
:100430002150B608216E036A22C025F0228ED89082
:100440002232233224320332023201320032212E90
:10045000F6D725AE0BD0001E011E021E031E002A79
:10046000D8B4012AD8B4022AD8B4032AA6EF02F0DD
:10047000D8B203D0EA6A290EE96E006A016A026AFC
:10048000036A296A2A6A2B6A2C6A285027102610C8
:1004900025102CE0200E2D6ED890213622362336E2
:1004A000243629362A362B362C3628502C5C08E187
:1004B00027502B5C05E126502A5C02E12550295C7F
:1004C0000FE32550295E2650D8A0263C2A5E2750EF
:1004D000D8A0273C2B5E2850D8A0283C2C5ED88082
:1004E00000360136023603362D2ED6D729C0EFFF4F
:1004F0002AC0ECFF2BC0ECFF2CC0ECFF1200E9502F
:10050000196E18501B6E19E017C024F016C023F0A6
:1005100015C022F014C021F0286A276A200E266E2A
:10052000820E256ECADE03C017F002C016F001C0AD
:1005300015F000C014F01B2EE7D717C024F016C02A
:1005400023F015C022F014C021F072D703C017F0B9
:1005500002C016F001C015F000C014F017AE0DD0A7
:100560001906198A141E151E161E171E142AD8B431
:10057000152AD8B4162AD8B4172A3B0E206E9A0E24
:100580001F6ECA0E1E6E1D6A0A0E1B6E1850D8B45E
:10059000192AD882EA6A140EE96E17C024F016C030
:1005A00023F015C022F014C021F020C028F01FC095
:1005B00027F01EC026F01DC025F05ADF0150005262
:1005C0000FE118281B5C0CE019500CE00F0B1B5CB2
:1005D00001E037E219BE35D019BC04D0200E2DD071
:1005E000200E191619AA0CD0199A1850D8A4190659
:1005F0000050196E2D0E216EEBDE1950006E196A37
:1006000018501B5C0AE10050196E2E0E216EE0DEC0
:100610001950006E200E1916000E300E19AA0DD0BA
:10062000199A1850D8A419060050196E2D0E216E73
:10063000CFDE1950006E196A300E002600C021F07E
:10064000C7DED89220C024F01FC023F01EC022F0C5
:100650001DC021F0286A276A266A0A0E256E08DF67
:1006600003C020F002C01FF001C01EF000C01DF04A
:100670001B2E8FD71200F86AD09EC150C00B0F09F5
:10068000C16E070EB46E27D5C050C00B0709C06EEF
:10069000C08EC280C150C00B0E09C16E000E016E2B
:1006A000C250C30B0110C26EF250006EF29EA96AD6
:1006B000760EA86EA69CA69EA6840F01550EA76E68
:1006C000AA0EA76EA682A6B2FED7A6940050F2127A
:1006D000C282C2B2FED7C4CF0EF0C3CF0DF00EC09F
:1006E00015F00DC014F000011ED503C017F002C0B4
:1006F00016F001C015F000C014F003C01BF002C0DA
:100700001AF001C019F000C018F01F6AC00E1E6E6A
:100710007F0E1D6E880E1C6E22D503C017F002C01E
:1007200016F001C015F000C014F003C024F002C0A0
:1007300023F001C022F000C021F0286A276A200EB1
:10074000266E810E256EB9DD03C008F002C007F0E9
:1007500001C006F000C005F0938081B06ED008C0E3
:100760000CF007C00BF006C00AF005C009F0F2500B
:10077000006EF29E010EA96E09C0A8FFA69CA69E5F
:10078000A6840F01550EA76EAA0EA76EA682A6B26A
:10079000FED7A6940050F2120A0E226E000148DC29
:1007A000F250006EF29E020EA96E0AC0A8FFA69C2F
:1007B000A69EA6840F01550EA76EAA0EA76EA6824E
:1007C000A6B2FED7A6940050F2120A0E226E0001C5
:1007D0002FDCF250006EF29E030EA96E0BC0A8FF34
:1007E000A69CA69EA6840F01550EA76EAA0EA76E04
:1007F000A682A6B2FED7A6940050F2120A0E226E6E
:10080000000116DCF250006EF29E040EA96E0CC0C0
:10081000A8FFA69CA69EA6840F01550EA76EAA0E41
:10082000A76EA682A6B2FED7A6940050F2120A0EB8
:10083000226E000118EC00F075D0F2CF14F0F29E99
:10084000A96AA69CA69EA680A85014BEF28E0F6E22
:10085000F2CF14F0F29E010EA96EA69CA69EA68071
:10086000A85014BEF28E096EF2CF14F0F29E020E62
:10087000A96EA69CA69EA680A85014BEF28E0A6EF3
:10088000F2CF14F0F29E030EA96EA69CA69EA6803F
:10089000A85014BEF28E0B6EF2CF14F0F29E040E2E
:1008A000A96EA69CA69EA680A85014BEF28E0C6EC1
:1008B0000CC013F00BC012F00AC011F009C010F008
:1008C000180EF66E000EF76E070E146EA2DD890E7E
:1008D000E96E08C017F007C016F006C015F005C095
:1008E00014F0020E186E0BDE220EF66E000EF76E7E
:1008F000080E146E8EDD0FC021F06ADD200E216E11
:1009000067DD890EE96E13C017F012C016F011C032
:1009100015F010C014F0020E186EF1DD640E226E98
:0A09200018EC00F00F01D4D603001C
:020000040030CA
:0E0000003FCC3E1E0087A1000FC00FE00F4056
:00000001FF
;PIC18F4550
;CRC=D04E  CREATED="02-nov-21 11:49"
