:10000000BCEF03F00C56616C6F723A20256C750AD8
:10001000000054656E73616F3A2025660000EA6A3D
:10002000190EE96EEF500DE0060E016E006A002E0B
:10003000FED7012EFBD77B0E006E002EFED7EF2ED3
:10004000F3D712002038F00B006E0F0E8C14001046
:100050008C6E00008C80030E006E002EFED78C90FC
:1000600012008350006E00380F0B016E12000F0E4D
:100070009514F009956E8C8400008C800000F1DFEF
:1000800001C020F08C9000008C8000D000D00000D7
:10009000E8DF01C01FF08C900F0E9514956E20388C
:1000A000006EF00E001600501F10016E5DEF00F0A4
:1000B0009590959295948C92DAD701C01FF001BE6D
:1000C000FBD78C921DB08C8200008C9400008C9029
:1000D0001E381F6E0F0E1F161FC020F0B3DF1E50FC
:1000E0000F0B1F6E206EAEDF1200280E0C6E0C0E72
:1000F0000D6E010E0E6E060E0F6E8C908C928C940F
:100100000F0E9514956E9590959295940F0E196E0D
:1001100086DF010E0B6E0B50030808E3030E206E02
:1001200091DF050E196E7BDF0B2AF5D7020E206ECC
:1001300089DF050E196E73DF0B6A0B5003080DE3A0
:10014000036A0B500C0FE96E000E0320EA6EEFCF2E
:100150001EF01D6AADDF0B2AF0D7C5EF03F08E0E3F
:10016000006E0CC001F00BC002F0036A015209E1FD
:1001700002C001F0026A080E005E015202E1006A4C
:1001800008D0D89001BE04D0023601360006F9D757
:10019000019EE1EF03F00B50D8B4A5D0176E0F50BD
:1001A000D8B4A1D0175E05E37F0E1726D8B09BD038
:1001B00006D0810E175ED8A096D0D8B494D017C0C0
:1001C00000F0016A026A036A166A0CC015F0158E07
:1001D0000DC014F00EC013F0190E176E1250135EFE
:1001E0000DE2010E145E0AE2155E08E2165E06E2FA
:1001F000162A152A142A1250132628D01150145EDC
:1002000012E2010E155E0FE2165E0DE2162A152AA5
:10021000115014261250132619E3142A17E1152A37
:1002200015E1162A13D010508009155E0EE2010E5A
:10023000165E0BE2162A105080091526115014265E
:10024000E9E3152AE7E1162AE5D70380172E01D046
:100250000BD0D8901336143615361636D890033690
:10026000023601361836BAD718A006D0D890013217
:1002700002320332183202D0000635E018BE1ED01A
:10028000D89013361436153616361250135E07E220
:10029000010E145E04E2155E02E2165E1AE31150CE
:1002A000145E05E2010E155E02E2165E12E31050C6
:1002B0008009155E03E2010E165E0BE3032A09E1D5
:1002C000022A07E1012A05E1002A0DE0013202328B
:1002D00003320CC017F01050171A17AE02D0018E5F
:1002E00006D0019E04D0006A016A026A036AF1EF37
:1002F00003F01850D8B471D0006E1C50D8B46DD033
:10030000002604E3810E002668E204D07F0E005E22
:1003100064E363E019C020F01D50201A198E1D8E71
:100320001B501F02F4CF22F01A501E02F4CF03F02C
:10033000F3CF21F01F02F3502226F4502122000EA9
:1003400003221B501E02F3502226F4502122000EDD
:10035000026A0322022219501F02F3502126F45090
:100360000322000E022219501E02F3500326F450FD
:100370000222000E016A01221B501D02F3502126A9
:10038000F4500322000E022201221A501D02F350E3
:100390000326F4500222000E012219501D02F350D0
:1003A0000226F4500122002A01BE05D02136033670
:1003B000023601360006000E21AE0AD0032A0222C0
:1003C0000122015005E1025003E1035001E1002A3E
:1003D00020BE018E20AE019E04D0006A016A026A2E
:1003E000036A12001A2C01D003D0400E1B6E01D0FC
:1003F0001B6A010E195C1B261B5080091C6E1D6AAE
:100400001E6E56DE12001850070A07E00B0A0AE0BB
:10041000060A10E0020A14E018D0010E196E1A6ED6
:10042000E1DF18D01D6A010E1E6E42DE020E196E4B
:10043000F6DD10D0010E196E020E1A6ED3DF0AD04F
:100440001D6A100E1E6E34DE05D0010E1D6E18C022
:100450001EF02EDE12000900F6CF0CF0F7CF0DF0E3
:10046000F5CF18F0D0DF0CC0F6FF0DC0F7FF0B2E54
:10047000F2D71200EACF13F0E9CF12F00C38F009EE
:100480000E6E0E26E20F0F6E320F116E0C500F0B18
:100490000F260F261126E90F106E102610260B3896
:1004A0000F0B1026112610361136111E11360B5067
:1004B0000F0B11260E36070E0D6E0A0E10061126B2
:1004C000FDE30F061026FDE30E060F26FDE30D06E5
:1004D0000E26FDE3EA6A0D0EE96E070E1214129C59
:1004E000E926000EEA22E950110803E1EA5201E18F
:1004F000128CEF50006E08E112BC06D012B813D077
:1005000012B602D0200E03D012861298300E0026AA
:10051000EACF0CF0E9CF0BF000C018F074DF0CC08C
:10052000EAFF0BC0E9FFEE5012ACDDD71EEF04F07E
:100530001850B608186E036A19C01CF0198ED890AE
:1005400019321A321B320332023201320032182EB3
:10055000F6D71CAE0BD0001E011E021E031E002A81
:10056000D8B4012AD8B4022AD8B4032A26EF03F05B
:10057000D8B203D0EA6A200EE96E006A016A026A04
:10058000036A206A216A226A236A1F501E101D1006
:100590001C102CE0200E246ED890183619361A360E
:1005A0001B3620362136223623361F50235C08E1C5
:1005B0001E50225C05E11D50215C02E11C50205CB4
:1005C0000FE31C50205E1D50D8A01D3C215E1E5024
:1005D000D8A01E3C225E1F50D8A01F3C235ED880AE
:1005E0000036013602360336242ED6D720C0EFFF60
:1005F00021C0ECFF22C0ECFF23C0ECFF1200E95049
:10060000106E0F50126E19E00EC01BF00DC01AF0E4
:100610000CC019F00BC018F01F6A1E6A200E1D6E68
:10062000820E1C6E66DE03C00EF002C00DF001C02B
:100630000CF000C00BF0122EE7D70EC01BF00DC05F
:100640001AF00CC019F00BC018F072D703C00EF0EE
:1006500002C00DF001C00CF000C00BF00EAE0DD0CA
:100660001006108A0B1E0C1E0D1E0E1E0B2AD8B46F
:100670000C2AD8B40D2AD8B40E2A3B0E176E9A0E47
:10068000166ECA0E156E146A0A0E126E0F50D8B48A
:10069000102AD882EA6A0B0EE96E0EC01BF00DC05C
:1006A0001AF00CC019F00BC018F017C01FF016C0DC
:1006B0001EF015C01DF014C01CF05ADF015000528E
:1006C0000FE10F28125C0CE010500CE00F0B125CD5
:1006D00001E037E210BE35D010BC04D0200E2DD082
:1006E000200E101610AA0CD0109A0F50D8A4100685
:1006F0000050106E2D0E186E86DE1050006E106ABF
:100700000F50125C0AE10050106E2E0E186E7BDE48
:100710001050006E200E1016000E300E10AA0DD0D4
:10072000109A0F50D8A410060050106E2D0E186E9F
:100730006ADE1050006E106A300E002600C018F0FD
:1007400062DED89217C01BF016C01AF015C019F05F
:1007500014C018F01F6A1E6A1D6A0A0E1C6E08DF9C
:1007600003C017F002C016F001C015F000C014F06D
:10077000122E8FD735EF04F0F86AD09EC150C00B0F
:100780000F09C16E070EB46EB0D4C050C00B07097C
:10079000C06EC08EC280C150C00B0E09C16E000E6B
:1007A000016EC250C30B0110C26EC282C2B2FED72C
:1007B000C4CF06F0C3CF05F006C00CF005C00BF0A7
:1007C000CED403C00EF002C00DF001C00CF000C08A
:1007D0000BF0126AC00E116E7F0E106E880E0F6E37
:1007E000DAD403C00EF002C00DF001C00CF000C05E
:1007F0000BF003C01BF002C01AF001C019F000C0DA
:1008000018F01F6A1E6A200E1D6E810E1C6E71DDAF
:1008100003C00AF002C009F001C008F000C007F0F0
:10082000040EF66E000EF76E080E0B6E14DE100E40
:10083000E96E06C00CF005C00BF01CD60A0E186E4F
:10084000E2DD120EF66E000EF76E080E0B6E03DE82
:10085000890EE96E0AC00EF009C00DF008C00CF058
:1008600007C00BF0020E0F6ECAD6640E196E0FECA5
:0608700000F09BD703001D
:020000040030CA
:0E0000003FCC3E1E0007A1000FC00FE00F40D6
:00000001FF
;PIC18F4550
;CRC=C538  CREATED="30-out-21 15:15"
