:1000000000308A0004280000FF238316900000308F
:100010008A001E2827308400000803191D2801309B
:10002000A100A001A00B1228A10B11284A30A000AA
:10003000A00B18281B28800B0F284C2803081F39F9
:1000400083001F1383161F109F101F119F1107306D
:100050008312990083161F169F161F1383129F1772
:100060001F141F1383161F149F101F119F110030A0
:100070008312A1001F08F33921049F009F149F18C9
:100080003F2883161E088312A1001E08A60021081F
:10009000A5000A30A7000A282608013C03185C289E
:1000A000FF3A031D57282508003C03185C288514D7
:1000B000831685105F28831285108316851083129E
:0400C0003E28630073
:02400E00C531BA
:00000001FF
;PIC12F675
;CRC=49A3  CREATED="31-out-21 14:38"
