:1000000035EF01F0F76A140FF66E000EF7220900C3
:10001000F5501200280C01060C4C4549545552412C
:100020003A20256C75000A53414C564F3A202563FF
:1000300020256C750000EA6A160EE96EEF500DE09F
:10004000060E016E006A002EFED7012EFBD77B0E36
:10005000006E002EFED7EF2EF3D712001DB002D097
:100060008C9801D08C8895981DB202D08C9A01D0C2
:100070008C8A959A1DB402D08C9C01D08C8C959C56
:100080001DB602D08C9E01D08C8E959E000096925B
:100090008D82030E006E002EFED796928D92120076
:1000A00096948D94630E006E002EFED700D01A52E7
:1000B00003E096948D8402D096948D9400009692DD
:1000C0008D921B381C6E0F0E1C161CC01DF0C6DF57
:1000D0001B500F0B1C6E1D6EC1DF120096948D9489
:1000E00096928D920F0E166EA6DF0C6A0C500208C7
:1000F00008E3030E1D6EB2DF050E166E9CDF0C2AA0
:10010000F5D7020E1D6EAADF0C6A0C5003080CE333
:10011000036A0C5077DF0D6E1A6A1B6EC1DF050E85
:10012000166E89DF0C2AF1D73EEF01F0172C01D0B3
:1001300003D0400E186E01D0186A010E165C182606
:1001400018508009196E1A6A1B6EAADFC8EF00F0FA
:1001500015500C0A05E0060A0BE0020A0FE013D066
:100160001A6A010E1B6E9CDF020E166E64DF10D041
:10017000010E166E020E176ED9D70AD01A6A100E2B
:100180001B6E8EDF05D0010E1A6E15C01BF088DFC6
:1001900012000900F6CF0DF0F7CF0EF0F5CF15F0F5
:1001A000D7DF0DC0F6FF0EC0F7FF0C2EF2D71200FE
:1001B000EACF14F0E9CF13F00D38F0090F6E0F26D7
:1001C000E20F106E320F126E0D500F0B102610261C
:1001D0001226E90F116E112611260C380F0B11266D
:1001E000122611361236121E12360C500F0B122622
:1001F0000F36070E0E6E0A0E11061226FDE31006CC
:100200001126FDE30F061026FDE30E060F26FDE383
:10021000EA6A0E0EE96E070E1314139CE926000E0F
:10022000EA22E950120803E1EA5201E1138CEF508F
:10023000006E08E113BC06D013B813D013B602D079
:10024000200E03D013861398300E0026EACF0DF04F
:10025000E9CF0CF000C015F07BDF0DC0EAFF0CC049
:10026000E9FFEE5013ACDDD71200F86AD09EC15002
:10027000C00B0F09C16E070EB46E30D7C050C00B53
:100280000709C06EC08EC280C150C00B0E09C16E7E
:10029000000E016EC250C30B0110C26EF250006E10
:1002A000F29EA96A760EA86EA69CA69EA6840F0151
:1002B000550EA76EAA0EA76EA682A6B2FED7A6946A
:1002C0000050F212C282C2B2FED7C4CF06F0C3CF32
:1002D00005F0938081B037D005C007F006C008F064
:1002E000F2CF00F0F29E010EA96E07C0A8FFA69CF7
:1002F000A69EA684550EA76EAA0EA76EA682A6B2CB
:10030000FED7A6940050F2120A0E166E000193DE7C
:10031000F250006EF29E020EA96E08C0A8FFA69CC5
:10032000A69EA6840F01550EA76EAA0EA76EA682E2
:10033000A6B2FED7A6940050F2120A0E166E000165
:100340007ADE4ED00F01F2CF0CF0F29EA96AA69C85
:10035000A69EA680A8500CBEF28E096EF2CF0CF0BD
:10036000F29E010EA96EA69CA69EA680A8500CBE69
:10037000F28E076EF2CF0CF0F29E020EA96EA69CD2
:10038000A69EA680A8500CBEF28E086E08C00BF088
:1003900007C00AF0180EF66E000EF76E0A0E0C6E0D
:1003A0000001F7DE100EE96E06C00DF005C00CF07E
:1003B000FFDE260EF66E000EF76E080E0C6EE9DEFE
:1003C00009C015F0C5DE200E156EC2DE100EE96EF6
:1003D0000BC00DF00AC00CF0EBDE640E166E2BDEC7
:0603E0000F0170D70300BD
:020000040030CA
:0E0000003FCC3E1E0087A1000FC00FE00F4056
:00000001FF
;PIC18F4550
;CRC=ED90  CREATED="01-nov-21 18:14"
