:1000000069EF01F08E0E006E12C001F011C002F017
:10001000036A0152D8A419EF00F002C001F0026A8D
:10002000080E005E0152D8A419EF00F0006A23EF19
:1000300000F0D89001BE22EF00F002360136000633
:1000400019EF00F0019E12000D50D8B4A5D0196E22
:100050001150D8B4A1D0195E05E37F0E1926D8B08F
:100060009BD006D0810E195ED8A096D0D8B494D07B
:1000700019C000F0016A026A036A186A0EC017F01C
:10008000178E0FC016F010C015F0190E196E14500F
:10009000155E0DE2010E165E0AE2175E08E2185EBA
:1000A00006E2182A172A162A1450152628D01350AB
:1000B000165E12E2010E175E0FE2185E0DE2182ABC
:1000C000172A135016261450152619E3162A17E17D
:1000D000172A15E1182A13D012508009175E0EE274
:1000E000010E185E0BE2182A1250800917261350D1
:1000F0001626E9E3172AE7E1182AE5D70380192E27
:1001000001D00BD0D8901536163617361836D89041
:100110000336023601361A36BAD71AA006D0D8905E
:100120000132023203321A3202D0000635E01ABE22
:100130001ED0D89015361636173618361450155E60
:1001400007E2010E165E04E2175E02E2185E1AE391
:100150001350165E05E2010E175E02E2185E12E30E
:1001600012508009175E03E2010E185E0BE3032AAA
:1001700009E1022A07E1012A05E1002A0DE0013226
:10018000023203320EC019F01250191A19AE02D001
:10019000018E06D0019E04D0006A016A026A036AD9
:1001A000A2EF01F01150D8B471D0006E1550D8B440
:1001B0006DD0002604E3810E002668E204D07F0E95
:1001C000005E64E363E012C019F01650191A128E33
:1001D000168E14501802F4CF1BF013501702F4CFF0
:1001E00003F0F3CF1AF01802F3501B26F4501A2232
:1001F000000E032214501702F3501B26F4501A224B
:10020000000E026A0322022212501802F3501A262C
:10021000F4500322000E022212501702F35003265C
:10022000F4500222000E016A012214501602F3500B
:100230001A26F4500322000E022201221350160245
:10024000F3500326F4500222000E0122125016022F
:10025000F3500226F4500122002A01BE05D01A36BE
:100260000336023601360006000E1AAE0AD0032A03
:1002700002220122015005E1025003E1035001E195
:10028000002A19BE018E19AE019E04D0006A016ACF
:10029000026A036AC0EF01F08E0E006E1150005E1C
:1002A00012C002F013C001F0028E005209E0D89093
:1002B000025202E1015204E002320132002EF7D76D
:1002C00012AE05D0011E021E012AD8B4022AC9EFBF
:1002D00001F0F86AD09EC150C00B0F09C16E070E25
:1002E000B46E066A320E056E086A7C0E076E000E4A
:1002F0000609CA6E07C0CBFF94948B940C0EBD6E9A
:10030000B76AB66A010E07240B6E000E08200C6E49
:100310000B360C360B360C36FC0E0B1606C012F0E4
:1003200005C011F06FDE03C010F002C00FF001C075
:100330000EF000C00DF0146A136A480E126E850E9E
:10034000116E82D603C010F002C00FF001C00EF093
:1003500000C00DF00CC012F00BC011F053DE03C052
:1003600014F002C013F001C012F000C011F010C070
:1003700018F00FC017F00EC016F00DC015F012D710
:1003800003C014F002C013F001C012F000C011F05D
:1003900083D702C00AF001C009F00AC002F009C008
:1003A00001F00232013202320132023201C0BEFFDC
:1003B00002320230300B006EBD50CF0B0010BD6E0C
:0403C000FFD7030060
:020000040030CA
:0E0000003FC03E1E0087A1000FC00FE00F4062
:00000001FF
;PIC18F4550
;CRC=DF32  CREATED="01-nov-21 11:16"
