:1000000032EF01F0F76A140FF66E000EF7220900C6
:10001000F5501200280C01060C504F5420313A20A4
:10002000256C750A504F5420323A20256C7500001B
:10003000EA6A130EE96EEF500DE0060E016E006ADB
:10004000002EFED7012EFBD77B0E006E002EFED7B2
:10005000EF2EF3D712001AB002D08C9801D08C8802
:1000600095981AB202D08C9A01D08C8A959A1AB4BB
:1000700002D08C9C01D08C8C959C1AB602D08C9EA0
:1000800001D08C8E959E000096928D82030E006E9C
:10009000002EFED796928D92120096948D94630E48
:1000A000006E002EFED700D0175203E096948D8488
:1000B00002D096948D94000096928D921838196E05
:1000C0000F0E191619C01AF0C6DF18500F0B196E53
:1000D0001A6EC1DF120096948D9496928D920F0E37
:1000E000136EA6DF096A0950020808E3030E1A6EB0
:1000F000B2DF050E136E9CDF092AF5D7020E1A6EC9
:10010000AADF096A095003080CE3036A09507ADF81
:100110000A6E176A186EC1DF050E136E89DF092A91
:10012000F1D73BEF01F0142C01D003D0400E156E37
:1001300001D0156A010E135C152615508009166E44
:10014000176A186EAADFC5EF00F012500C0A05E01E
:10015000060A0BE0020A0FE013D0176A010E186EB0
:100160009CDF020E136E64DF10D0010E136E020EC0
:10017000146ED9D70AD0176A100E186E8EDF05D00C
:10018000010E176E12C018F088DF12000900F6CFBA
:100190000AF0F7CF0BF0F5CF12F0D7DF0AC0F6FF69
:1001A0000BC0F7FF092EF2D71200EACF11F0E9CF0A
:1001B00010F00A38F0090C6E0C26E20F0D6E320FAB
:1001C0000F6E0A500F0B0D260D260F26E90F0E6E2F
:1001D0000E260E2609380F0B0E260F260E360F366A
:1001E0000F1E0F3609500F0B0F260C36070E0B6E25
:1001F0000A0E0E060F26FDE30D060E26FDE30C0685
:100200000D26FDE30B060C26FDE3EA6A0B0EE96EF4
:10021000070E1014109CE926000EEA22E9500F0880
:1002200003E1EA5201E1108CEF50006E08E110BCCE
:1002300006D010B813D010B602D0200E03D010860E
:100240001098300E0026EACF0AF0E9CF09F000C07E
:1002500012F07BDF0AC0EAFF09C0E9FFEE5010ACE4
:10026000DDD71200F86AD09EC150C00B0F09C16ED5
:10027000070EB46E30D7C050C00B0709C06EC08ED9
:10028000C280C150C00B0D09C16E000E016EC2507C
:10029000C30B0110C26E0A0E136ECADEC282C2B256
:1002A000FED7C4CF06F0C3CF05F00A0E136EC0DE32
:1002B000040E016EC250C30B0110C26E0A0E136E03
:1002C000B7DEC282C2B2FED7C4CF08F0C3CF07F0F8
:1002D0000A0E136EADDE180EF66E000EF76E080EE7
:1002E000096E54DF100EE96E06C00AF005C009F071
:1002F0005CDF230EF66E000EF76E080E096E46DF09
:10030000100EE96E08C00AF007C009F04EDFBDD735
:020310000300E8
:020000040030CA
:0E0000003FCC3E1E0087A1000FC00FE00F4056
:00000001FF
;PIC18F4550
;CRC=9836  CREATED="31-out-21 14:50"
