:10000000B6EF01F0F76A140FF66E000EF722090042
:10001000F5501200280C01060C53656D61666F7275
:100020006F20256900000A436F6E746167656D205B
:1000300025690000EA6A190EE96EEF500DE0060E20
:10004000016E006A002EFED7012EFBD77B0E006EDC
:10005000002EFED7EF2EF3D7120020B002D08C98DE
:1000600001D08C88959820B202D08C9A01D08C8ACD
:10007000959A20B402D08C9C01D08C8C959C20B693
:1000800002D08C9E01D08C8E959E000096928D821F
:10009000030E006E002EFED796928D92120096945B
:1000A0008D94630E006E002EFED700D01D5203E02B
:1000B00096948D8402D096948D94000096928D92A1
:1000C0001E381F6E0F0E1F161FC020F0C6DF1E50F9
:1000D0000F0B1F6E206EC1DF120096948D949692C6
:1000E0008D920F0E196EA6DF0E6A0E50020808E3FD
:1000F000030E206EB2DF050E196E9CDF0E2AF5D7B7
:10010000020E206EAADF0E6A0E5003080CE3036A8B
:100110000E5078DF0F6E1D6A1E6EC1DF050E196E60
:1001200089DF0E2AF1D7C8EF01F01050070B006EDF
:100130001030016E013201321F0E011601501224DF
:10014000E96E000E1320EA6E016A012A002A01D02E
:100150000136002EFDD7115203E00150EF1203D0FB
:10016000011E0150EF161200036A0850040FE96ED9
:10017000000E0320EA6EEFCF1BF0010E195C1B2668
:100180001B5080091C6E1D6A1E6E89DFEAEF00F0AD
:1001900018500C0A05E0060A0CE0020A11E015D01E
:1001A0001D6A010E1E6E7BDF086A020E196E42DFA9
:1001B00011D0082A010E196E08C01AF0D5D70AD03E
:1001C0001D6A100E1E6E6BDF05D0010E1D6E18C06D
:1001D0001EF065DF12000900F6CF13F0F7CF14F020
:1001E000F5CF18F0D5DF13C0F6FF14C0F7FF122EBD
:1001F000F2D712001950016A185C03E218C000F02F
:100200000CD0006A080E1A6E183600361950005CC1
:10021000D8B0006E01361A2EF7D71200200E13A8A0
:10022000300E146E12C000F012AE08D0001E002A6C
:1002300000C012F02D0E146E138E1380015012C0E8
:1002400018F0640E196ED6DF00C012F0300E0124D3
:10025000156E12C018F00A0E196ECCDF300E002495
:10026000176E300E0124166E14C000F0300E155CAF
:1002700004E0138213BE138412D014C015F0200EB4
:10028000146E300E165C04E0138013BE138207D088
:10029000D8A4138004E115C016F0200E156E13B417
:1002A00005D013B206D013B007D009D014C018F08F
:1002B0006FDF15C018F06CDF16C018F069DF17C0CB
:1002C00018F066DF1200F2CF12F0F29E10C0A9FF04
:1002D000A69CA69EA680A85012BEF28E116E180E85
:1002E000F66E000EF76E0A0E126E75DF10C012F079
:1002F000180E136E93DF260EF66E000EF76E0A0EC2
:10030000126E69DF11C012F0180E136E87DF120033
:10031000F2CF10F0F29E0EC0A9FFA69CA69EA6806A
:10032000A85010BEF28E0F6E0F2A0F50C70819E3A7
:10033000F250006EF29E0EC0A9FF0FC0A8FFA69C4F
:10034000A69EA6840F01550EA76EAA0EA76EA682C2
:10035000A6B2FED7A6940050F2120A0E196E000142
:1003600069DE09C010F0AFDF98EF02F0F86AD09EA6
:10037000086A096AC150C00B0F09C16E070EB46E3E
:10038000046A400E056E100E066E500E076EA5D65E
:100390000A6A0A50040828E3F2CF0EF0F29E0AC05F
:1003A000A9FFA69CA69EA680A8500EBEF28E0B6E3C
:1003B0000B3C18D0F250006EF29E0AC0A9FFA86A4A
:1003C000A69CA69EA6840F01550EA76EAA0EA76E28
:1003D000A682A6B2FED7A6940050F2120A0E196E9B
:1003E000000128DE0A2AD5D70B0E09240E6E7C0EDA
:1003F0000F6ED8B00F2A0EC010F0010E116E0F0E46
:10040000136E890E126E91DE0EC010F0116A0F0E7F
:10041000136E920E126E89DE09C010F054DF9380C5
:1004200081B03ED0095201E009060C6A0C50040864
:1004300019E30B0E0C240E6E7C0E0F6ED8B00F2A33
:100440000EC010F0116A0F0E136E890E126E6DDE63
:100450000EC010F0116A0F0E136E920E126E65DE52
:100460000C2AE4D70B0E09240E6E7C0E0F6ED8B04A
:100470000F2A0EC010F0010E116E0F0E136E890EB2
:10048000126E53DE0EC010F0116A0F0E136E920E34
:10049000126E4BDE09C010F016DF938081A0FDD7ED
:1004A000938281B23FD00950030801E3092A0D6A03
:1004B0000D50040819E30B0E0D240E6E7C0E0F6E0A
:1004C000D8B00F2A0EC010F0116A0F0E136E890EED
:1004D000126E2BDE0EC010F0116A0F0E136E920E0C
:1004E000126E23DE0D2AE4D70B0E09240E6E7C0E4D
:1004F0000F6ED8B00F2A0EC010F0010E116E0F0E45
:10050000136E890E126E11DE0EC010F0116A0F0EFE
:10051000136E920E126E09DE09C010F0D4DE9382C3
:1005200081A2FDD7938481B406D009C00EF0F0D625
:0A053000938481A4FDD773D7030064
:020000040030CA
:0E0000003FCC3E1E0087A1000FC00FE00F4056
:00000001FF
;PIC18F4550
;CRC=FCC7  CREATED="02-nov-21 12:58"
