:08000000E00204000000000012
:08003400840200003E020000FE
:100400003220EF00C3202000008041001040BA00DD
:100410000160EF00000006000A0D000053610000BB
:100420006D7000006C6900006E6700003A0000000B
:10043000851F78000828EF00444080004306200014
:100440000418E1000B0036000888BF004100DD0001
:10045000A4802000840240000688BF0006A8EC00AB
:1004600010027800840298000828EC001C020400A6
:1004700000000000CF027800000006004200F800F3
:100480003600F8003200F800801F780020002000BD
:100490000C000900B01F78000008AE00060037000D
:1004A000040024003440880018020200000000000C
:1004B0006402040000000000840C24003440880022
:1004C00018020200000000000000EB000008AF006E
:1004D0000000E8000000A2000008A9000000AF0032
:1004E0000008A8008480A900A00120000C000900D9
:1004F0004F1078004F0078003200F9003600F90004
:100500004200F900004006004200F8003600F80002
:100510003200F800801F7800200020000C00090045
:10052000B01F78002003A9002023A8002003AE00FC
:10053000FEFF37008460A900A00120000C00090024
:100540004F1078004F0078003200F9003600F900B3
:100550004200F900004006000000E0004220AF0029
:10056000040037000B270900000000000000E9002C
:10057000FCFF3A0000000600C6E2A900CAE2A9009A
:1005800083002000000109000000000004E8D700FB
:100590004200AF00CAE2A8004200AE00CAE2A900D1
:1005A000FB000900000000008301E900F7FF3A00AA
:1005B000CAE2A800020109000000000000000600D5
:1005C0000FF82300F0FF230020A0B7000000000078
:1005D000404424002005880081E0A800C6E2A9006C
:1005E000CAE2A80000FA2000AC02020000000000ED
:1005F0002CA3EF002AA3EF006CA3EF006AA3EF0087
:100600008163EF00D0C0B30082E3B7000430200064
:10061000441C880081E3A90020C0B30080E3B70038
:1006200004002400241C8800840C2400341C88004E
:1006300044062000541C880081E3A800F4EF2F003A
:10064000641988002AA3EF002223EF0004F0290098
:1006500024198800046E28000419880084002000F2
:100660004419880001002000010078000160EF00BB
:1006700000020200000000008100E800811F7800F5
:1006800004E8B700BC02020000000000CF007800C0
:10069000A00020000008E600F3FF37002003A900B7
:1006A0002023A8002003AE00FEFF37000003F8005F
:1006B0000208F9000421EF008425200014088800B6
:1006C00004002800240888009460A8009480A800F2
:1006D00081E0A9004220EF0081E0A8006E03040041
:0806E000000000000040FE00D4
:0200000401F009
:10000000CF00FF00CF00FF000700FF008200FF00CD
:10001000C200FF005F00FF00E700FF00C300FF0019
:00000001FF
;SETTINGS MONITOR=38400
;DSPIC33FJ128GP706
;CRC=840F  CREATED="28-out-21 10:01"
