:0400000071EF00F0AC
:08000800046ED8CF05F0E0CF33
:1000100006F00001E9CF0CF0EACF07F0E1CF08F0DD
:10002000E2CF09F0D9CF0AF0DACF0BF0F3CF12F01C
:10003000F4CF13F0FACF14F0F5CF15F0F6CF16F099
:10004000F7CF17F000C00EF001C00FF002C010F0A3
:1000500003C011F0F2A830EF00F0F2B257EF00F059
:100060000EC000F00FC001F010C002F011C003F08C
:100070000CC0E9FF07C0EAFF078E08C0E1FF09C016
:10008000E2FF0AC0D9FF0BC0DAFF12C0F3FF13C0B2
:10009000F4FF14C0FAFF15C0F5FF16C0F6FF17C035
:1000A000F7FF045006C0E0FF05C0D8FF1000959C84
:1000B0008C7CF29230EF00F0EA6A1A0EE96EEF5093
:1000C0000EE0010E016E006A002EFED7012EFBD756
:1000D0004A0E006E002EFED700D0EF2EF2D784EF2E
:1000E00000F0F86AD09E078EC150C00B0F09C16E98
:1000F000070EB46EC00EF212F288959E8C7E020E30
:10010000196EFA0E1A6ED8D7192EFBD7F6D7030040
:020000040030CA
:0E0000003FC03E1E0007A1000FC00FE00F40E2
:00000001FF
;PIC18F4550
;CRC=3169  CREATED="04-nov-21 10:26"
