:1000000000308A00422800000A108A100A11820774
:1000100023344134553454344F3400340A108A1098
:100020000A1182072334453443344F344E344F345D
:100030004D34493443344F3400340A108A100A11C5
:100040008207233444344534533445344D345034DA
:1000500045344E3448344F34003423308400831305
:100060000008031941280130F800F701F70B362882
:10007000F80B35284A30F700F70B3C283F28800B57
:100080003328A32803081F39830083168E151930DF
:100090009900A630980090308312980007309F0096
:1000A0008313831605148312211005182114831657
:1000B00085148312A1108518A114831605158312C7
:1000C000211105192115211C7728A118772821193C
:1000D0007728A20122080420A20AF70077080C1E44
:1000E0006F28990005302202031D6A289E282118D6
:1000F0008B28A11C8B2821198B28A20122080E20F5
:10010000A20AF70077080C1E832899000A30220201
:10011000031D7E289E2821189E28A1189E28211D97
:100120009E28A20122081D20A20AF70077080C1EB3
:10013000972899000B302202031D92280430A20058
:0E014000FA30A3002D28A20BA028512863003E
:02400E00513F20
:00000001FF
;PIC16F628A
;CRC=569B  CREATED="22-jul-18 12:51"
