:10000000ACEF02F04D657520746578746F206E6FEB
:10001000204C434400000A54656D7065726174752C
:100020007261203D20256600EA6A140EE96EEF50E9
:100030000DE0060E016E006A002EFED7012EFBD7E2
:100040007B0E006E002EFED7EF2EF3D712001B386A
:10005000F00B006E0F0E8C1400108C6E00008C8064
:10006000030E006E002EFED78C9012008350006E9F
:1000700000380F0B016E12000F0E9514F009956EEB
:100080008C8400008C800000F1DF01C01BF08C909C
:1000900000008C8000D000D00000E8DF01C01AF022
:1000A0008C900F0E9514956E1B38006EF00E001696
:1000B00000501A10016E62EF00F0959095929594A1
:1000C0008C92DAD701C01AF001BEFBD78C9218B01F
:1000D0008C8200008C9400008C9019381A6E0F0EE0
:1000E0001A161AC01BF0B3DF19500F0B1A6E1B6ED5
:1000F000AEDF1200280E076E0C0E086E010E096EA0
:10010000060E0A6E8C908C928C940F0E9514956E40
:100110009590959295940F0E146E86DF010E066EE3
:100120000650030808E3030E1B6E91DF050E146EE4
:100130007BDF062AF5D7020E1B6E89DF050E146ED3
:1001400073DF066A065003080DE3036A0650070FC3
:10015000E96E000E0320EA6EEFCF19F0186AADDFEA
:10016000062AF0D7B7EF02F0152C01D003D0400ECD
:10017000166E01D0166A010E145C16261650800900
:10018000176E186A196E99DF12001350070A07E0FC
:100190000B0A0AE0060A10E0020A14E018D0010E69
:1001A000146E156EE1DF18D0186A010E196E85DF26
:1001B000020E146E39DF10D0010E146E020E156E91
:1001C000D3DF0AD0186A100E196E77DF05D0010E42
:1001D000186E13C019F071DF12000900F5520CE01F
:1001E000F6CF06F0F7CF07F0F5CF13F0CEDF06C05D
:1001F000F6FF07C0F7FFF1D7BCEF02F00900F6CF1A
:1002000007F0F7CF08F0F5CF13F0BFDF07C0F6FF18
:1002100008C0F7FF062EF2D7CAEF02F01350D8B489
:1002200071D0006E1750D8B46DD0002604E3810E53
:10023000002668E204D07F0E005E64E363E014C031
:100240001BF018501B1A148E188E16501A02F4CF79
:100250001DF015501902F4CF03F0F3CF1CF01A0271
:10026000F3501D26F4501C22000E032216501902D2
:10027000F3501D26F4501C22000E026A03220222B3
:1002800014501A02F3501C26F4500322000E0222CE
:1002900014501902F3500326F4500222000E016A92
:1002A000012216501802F3501C26F4500322000EAF
:1002B0000222012215501802F3500326F4500222A4
:1002C000000E012214501802F3500226F4500122AD
:1002D000002A01BE05D01C36033602360136000660
:1002E000000E1CAE0AD0032A02220122015005E1B1
:1002F000025003E1035001E1002A1BBE018E1BAE38
:10030000019E04D0006A016A026A036A03EF02F0E8
:100310001350B608136E036A14C017F0148ED890E9
:100320001432153216320332023201320032132EE9
:10033000F6D717AE0BD0001E011E021E031E002AA8
:10034000D8B4012AD8B4022AD8B4032A16EF02F08E
:10035000D8B203D0EA6A1B0EE96E006A016A026A2B
:10036000036A1B6A1C6A1D6A1E6A1A50191018104B
:1003700017102CE0200E1F6ED89013361436153649
:1003800016361B361C361D361E361A501E5C08E10A
:1003900019501D5C05E118501C5C02E117501B5CF4
:1003A0000FE317501B5E1850D8A0183C1C5E195064
:1003B000D8A0193C1D5E1A50D8A01A3C1E5ED880E9
:1003C00000360136023603361F2ED6D71BC0EFFF8C
:1003D0001CC0ECFF1DC0ECFF1EC0ECFF1200E9507A
:1003E0000B6E0A500D6E19E009C016F008C015F02A
:1003F00007C014F006C013F01A6A196A200E186EAE
:10040000820E176E0BD703C009F002C008F001C0BE
:1004100007F000C006F00D2EE7D709C016F008C09F
:1004200015F007C014F006C013F072D703C009F02E
:1004300002C008F001C007F000C006F009AE0DD000
:100440000B060B8A061E071E081E091E062AD8B4B4
:10045000072AD8B4082AD8B4092A3B0E126E9A0E7D
:10046000116ECA0E106E0F6A0A0E0D6E0A50D8B4C5
:100470000B2AD882EA6A060EE96E09C016F008C097
:1004800015F007C014F006C013F012C01AF011C026
:1004900019F010C018F00FC017F05ADF01500052C9
:1004A0000FE10A280D5C0CE00B500CE00F0B0D5C0B
:1004B00001E037E20BBE35D00BBC04D0200E2DD0AE
:1004C000200E0B160BAA0CD00B9A0A50D8A40B06C0
:1004D00000500B6E2D0E136E58DE0B50006E0B6A23
:1004E0000A500D5C0AE100500B6E2E0E136E4DDEAD
:1004F0000B50006E200E0B16000E300E0BAA0DD006
:100500000B9A0A50D8A40B0600500B6E2D0E136EDA
:100510003CDE0B50006E0B6A300E002600C013F05C
:1005200034DED89212C016F011C015F010C014F0CD
:100530000FC013F01A6A196A186A0A0E176E08DFDC
:1005400003C012F002C011F001C010F000C00FF0A3
:100550000D2E8FD7D7EF02F0F86AD09E056A046A95
:10056000C150C00B0F09C16E070EB46EC3D5040E87
:10057000F66E000EF76E31D6040E066EFA0E146E8D
:1005800053DD062EFBD7160EF66E000EF76E0F0E1D
:10059000066E34D6890EE96ECD0E096ECC0E086E4D
:1005A000640E076E830E066E020E0A6E18D70300E5
:020000040030CA
:0E0000003FCC3E1E0007A1000FC00FE00F40D6
:00000001FF
;PIC18F4550
;CRC=F279  CREATED="28-out-21 11:52"
