:1000000005EF01F0016A026A006A036A1D50D8A474
:100010000EEF00F01C50D8B42BEF00F0100E1E6E47
:10002000D8901A361B36003603361D50035CD8A410
:100030001CEF00F01C50005CD8A026EF00F01C5014
:10004000005ED8A003061D50035ED880013602363C
:100050001E2E10EF00F012001A50070B006E1A301F
:10006000016E013201321F0E011601501C24E96E8F
:10007000000E1D20EA6E016A012A002A01D0013615
:10008000002EFDD71B5203E00150EF1203D0011EDA
:100090000150EF161200EA6A1A0EE96EEF500EE0F8
:1000A000010E016E006A002EFED7012EFBD74A0E0C
:1000B000006E002EFED700D0EF2EF2D786EF00F0B4
:1000C000899492948996929689989298899A929A0C
:1000D00018C01AF0010E1B6E0F0E1D6E890E1C6EDD
:1000E000BBDF18C01AF01B6A0F0E1D6E920E1C6E3D
:1000F000B3DF036A1950040FE96E000E0320EA6EA5
:10010000EFCF8CFF956A050E1A6EC5D7120013C08B
:100110001BF012C01AF0030E1D6EE80E1C6E72DF8B
:1001200000C018F003C019F003C01BF000C01AF0A3
:100130001D6A640E1C6E66DF00C018F003C019F063
:1001400003C01BF000C01AF01D6A0A0E1C6E5ADFB5
:1001500000C014F013C01BF012C01AF0030E1D6E85
:10016000E80E1C6E4FDF00C018F003C019F003C08A
:100170001BF000C01AF01D6A640E1C6E43DF00C045
:1001800018F003C019F003C01BF000C01AF01D6A7C
:100190000A0E1C6E37DF01C015F013C01BF012C031
:1001A0001AF0030E1D6EE80E1C6E2CDF00C018F056
:1001B00003C019F003C01BF000C01AF01D6A640EE2
:1001C0001C6E20DF01C016F013C01BF012C01AF025
:1001D000030E1D6EE80E1C6E15DF01C017F0020E37
:1001E000186E17C019F06CDF030E186E16C019F0E8
:1001F00067DF040E186E15C019F062DF050E186E69
:1002000014C019F05DDF63EF01F0F86AD09E0F6A49
:100210000E6A106AC150C00B0F09C16E070EB46E92
:100220003F0E046E060E056E5B0E066E4F0E076ED9
:10023000660E086E6D0E096E7C0E0A6E070E0B6E52
:100240007F0E0C6E670E0D6E116A105226E19380C0
:1002500081B00BD00E5202E10F5204E00E50D8B420
:100260000F060E06938081A0FDD7938281B20DD038
:100270000F50270807E303E10E500E0803E30E2A90
:10028000D8B40F2A938281A2FDD7938481B405D07C
:10029000010E106E938481A4FDD7102C0FD00E5246
:1002A00002E10F520AE0112A1150280805E10E5010
:1002B000D8B40F060E06116A01D0106A0FC013F0F1
:0A02C0000EC012F024D7C1D70300CE
:020000040030CA
:0E0000003FC03E1E0007A1000FC00FE00F40E2
:00000001FF
;PIC18F4550
;CRC=2620  CREATED="28-out-21 11:13"
