:10000000B2EF03F0F76A140FF66E000EF722090044
:10001000F5501200280C01060C542050574D3A2080
:10002000252E386600000A256C75207C2025660088
:10003000EA6A210EE96EEF500EE0010E016E006AD1
:10004000002EFED7012EFBD74A0E006E002EFED7E3
:1000500000D0EF2EF2D7120028B002D08C9801D039
:100060008C88959828B202D08C9A01D08C8A959A67
:1000700028B402D08C9C01D08C8C959C28B602D0E0
:100080008C9E01D08C8E959E000096928D8200D021
:1000900096928D92120096948D94130E006E002EFF
:1000A000FED700D0255203E096948D8402D096941A
:1000B0008D94000096928D922638276E0F0E27168B
:1000C00027C028F0C9DF26500F0B276E286EC4DF2B
:1000D000120096948D9496928D920F0E216EA8DF49
:1000E0000F6A0F50020808E3030E286EB5DF050EF5
:1000F000216E9EDF0F2AF5D7020E286EADDF0F6A44
:100100000F5003080CE3036A0F507CDF106E256A62
:10011000266EC1DF050E216E8BDF0F2AF1D7BBEFF4
:1001200003F08E0E006E16C001F015C002F0036AD7
:10013000015209E102C001F0026A080E005E01529C
:1001400002E1006A08D0D89001BE04D00236013620
:100150000006F9D7019E12001150D8B4A5D01D6E2B
:100160001550D8B4A1D01D5E05E37F0E1D26D8B072
:100170009BD006D0810E1D5ED8A096D0D8B494D066
:100180001DC000F0016A026A036A1C6A12C01BF0FB
:100190001B8E13C01AF014C019F0190E1D6E1850E2
:1001A000195E0DE2010E1A5E0AE21B5E08E21C5E99
:1001B00006E21C2A1B2A1A2A1850192628D0175082
:1001C0001A5E12E2010E1B5E0FE21C5E0DE21C2A9B
:1001D0001B2A17501A261850192619E31A2A17E154
:1001E0001B2A15E11C2A13D0165080091B5E0EE253
:1001F000010E1C5E0BE21C2A165080091B261750AC
:100200001A26E9E31B2AE7E11C2AE5D703801D2E05
:1002100001D00BD0D89019361A361B361C36D89020
:100220000336023601361E36BAD71EA006D0D89045
:100230000132023203321E3202D0000635E01EBE09
:100240001ED0D89019361A361B361C361850195E37
:1002500007E2010E1A5E04E21B5E02E21C5E1AE374
:1002600017501A5E05E2010E1B5E02E21C5E12E3ED
:10027000165080091B5E03E2010E1C5E0BE3032A8D
:1002800009E1022A07E1012A05E1002A0DE0013215
:100290000232033212C01DF016501D1A1DAE02D0DC
:1002A000018E06D0019E04D0006A016A026A036AC8
:1002B00012002050D8B471D0006E2450D8B46DD044
:1002C000002604E3810E002668E204D07F0E005E63
:1002D00064E363E021C028F02550281A218E258E82
:1002E00023502702F4CF2AF022502602F4CF03F045
:1002F000F3CF29F02702F3502A26F4502922000ECA
:10030000032223502602F3502A26F4502922000EFD
:10031000026A0322022221502702F3502926F450B8
:100320000322000E022221502602F3500326F4502D
:100330000222000E016A012223502502F3502926D1
:10034000F4500322000E0222012222502502F35013
:100350000326F4500222000E012221502502F35000
:100360000226F4500122002A01BE05D029360336A8
:10037000023601360006000E29AE0AD0032A0222F8
:100380000122015005E1025003E1035001E1002A7E
:1003900028BE018E28AE019E04D0006A016A026A5E
:1003A000036A12008E0E006E1550005E16C002F039
:1003B00017C001F0028E005209E0D890025202E10B
:1003C000015204E002320132002EF7D716AE05D0FA
:1003D000011E021E012AD8B4022A26EF04F0222CA4
:1003E00001D003D0400E236E01D0236A010E215CA0
:1003F000232623508009246E256A266E4CDE21EFC9
:1004000002F020500C0A05E0060A0BE0020A0FE099
:1004100013D0256A010E266E3EDE020E216E08DE26
:1004200010D0010E216E020E226ED9D70AD0256A95
:10043000100E266E30DE05D0010E256E20C026F08F
:100440002ADE12000900F6CF14F0F7CF15F0F5CF31
:1004500020F0D7DF14C0F6FF15C0F7FF132EF2D738
:1004600012002050B608206E036A21C024F0218EAD
:10047000D89021322232233203320232013200324A
:10048000202EF6D724AE0BD0001E011E021E031E26
:10049000002AD8B4012AD8B4022AD8B4032ABFEF5C
:1004A00002F0D8B203D0EA6A280EE96E006A016A47
:1004B000026A036A286A296A2A6A2B6A2750261068
:1004C000251024102CE0200E2C6ED89020362136DA
:1004D00022362336283629362A362B3627502B5CEF
:1004E00008E126502A5C05E12550295C02E12450F0
:1004F000285C0FE32450285E2550D8A0253C295EB7
:100500002650D8A0263C2A5E2750D8A0273C2B5E38
:10051000D88000360136023603362C2ED6D728C0B6
:10052000EFFF29C0ECFF2AC0ECFF2BC0ECFF12004C
:10053000E950186E17501A6E19E016C023F015C056
:1005400022F014C021F013C020F0276A266A200E82
:10055000256E820E246EADDE03C016F002C015F0CB
:1005600001C014F000C013F01A2EE7D716C023F014
:1005700015C022F014C021F013C020F072D703C0C0
:1005800016F002C015F001C014F000C013F016AE52
:100590000DD01806188A131E141E151E161E132AB7
:1005A000D8B4142AD8B4152AD8B4162A3B0E1F6E14
:1005B0009A0E1E6ECA0E1D6E1C6A0A0E1A6E175017
:1005C000D8B4182AD882EA6A130EE96E16C023F04E
:1005D00015C022F014C021F013C020F01FC027F076
:1005E0001EC026F01DC025F01CC024F05ADF0150AB
:1005F00000520FE117281A5C0CE018500CE00F0BAA
:100600001A5C01E037E218BE35D018BC04D0200EC9
:100610002DD0200E181618AA0CD0189A1750D8A44E
:1006200018060050186E2D0E206EEBDE1850006E6E
:10063000186A17501A5C0AE10050186E2E0E206ED0
:10064000E0DE1850006E200E1816000E300E18AAAC
:100650000DD0189A1750D8A418060050186E2D0EF9
:10066000206ECFDE1850006E186A300E002600C0D3
:1006700020F0C7DED8921FC023F01EC022F01DC09C
:1006800021F01CC020F0276A266A256A0A0E246E13
:1006900008DF03C01FF002C01EF001C01DF000C043
:1006A0001CF01A2E8FD71200EACF1BF0E9CF1AF0F8
:1006B0001438F009166E1626E20F176E320F196EF7
:1006C00014500F0B172617261926E90F186E182637
:1006D000182613380F0B1826192618361936191E26
:1006E000193613500F0B19261636070E156E0A0E03
:1006F00018061926FDE317061826FDE31606172629
:10070000FDE315061626FDE3EA6A150EE96E070EEF
:100710001A141A9CE926000EEA22E950190803E18E
:10072000EA5201E11A8CEF50006E08E11ABC06D0C3
:100730001AB813D01AB602D0200E03D01A861A980F
:10074000300E0026EACF14F0E9CF13F000C020F0FD
:1007500058DE14C0EAFF13C0E9FFEE501AACDDD733
:10076000C1EF04F0F86AD09EC150C00B0F09C16EF2
:10077000070EB46EAED4C150C00B0E09C16EC0508E
:10078000C00B0709C06EC09EC280000E016EC25031
:10079000C30B0110C26E066A320E056E94948B94E0
:1007A0000C0EBD6EB76AB66AC282C2B2FED7086AC4
:1007B000C4CF07F0000E0609CA6E07C0CBFF010EBA
:1007C00007240F6E000E0820106E0F3610360F36FD
:1007D0001036FC0E0F1606C016F005C015F0A1DC91
:1007E00003C014F002C013F001C012F000C011F0F9
:1007F000186A176A480E166E850E156EADDC03C0BA
:1008000014F002C013F001C012F000C011F010C0CB
:1008100016F00FC015F085DC03C023F002C022F0F3
:1008200001C021F000C020F014C027F013C026F052
:1008300012C025F011C024F03CDD03C018F002C046
:1008400017F001C016F000C015F0ACD502C00AF0D8
:1008500001C009F00AC002F009C001F00232013201
:1008600002320132023201C0BEFF02320230300BCE
:10087000006EBD50CF0B0010BD6E010E07240F6E31
:10088000000E0820106E166E0FC015F04ADC03C073
:1008900023F002C022F001C021F000C020F0276A3E
:1008A000266A256A810E246E04DD03C012F002C0A0
:1008B00011F001C010F000C00FF003C023F002C01F
:1008C00022F001C021F000C020F0BD0E276E370ECF
:1008D000266E060E256E690E246EEBDC03C012F048
:1008E00002C011F001C010F000C00FF003C023F0EF
:1008F00002C022F001C021F000C020F0276A266A61
:10090000256A830E246ED5DC03C00EF002C00DF004
:1009100001C00CF000C00BF0180EF66E000EF76E62
:10092000080E136E8FDD890EE96E0EC016F00DC035
:1009300015F00CC014F00BC013F0080E176EF8DDA4
:10094000146A136A126A7F0E116E0EC018F00DC081
:1009500017F00CC016F00BC015F0ACEC00F003C0A3
:1009600012F002C011F001C010F000C00FF00A0E2A
:10097000206E47DD100EE96E08C014F007C013F0BA
:1009800093D62A0EF66E000EF76E030E136E5ADD26
:10099000890EE96E12C016F011C015F010C014F0E7
:1009A0000FC013F0020E176EC3DD040E0F6EFA0EA9
:0E09B000216E18EC00F00F2EFAD7F6D60300D9
:020000040030CA
:0E0000003FC03E1E0087A1000FC00FE00F4062
:00000001FF
;PIC18F4550
;CRC=1476  CREATED="01-nov-21 11:25"
