:040000007DEF01F09F
:08000800046ED8CF05F0E0CF33
:1000100006F00001E9CF0CF0EACF07F0E1CF08F0DD
:10002000E2CF09F0D9CF0AF0DACF0BF0F3CF12F01C
:10003000F4CF13F0FACF14F000C00EF001C00FF0AF
:1000400002C010F003C011F09DAA2AEF00F09EBA82
:10005000F4EF00F00EC000F00FC001F010C002F08D
:1000600011C003F00CC0E9FF07C0EAFF078E08C00B
:10007000E1FF09C0E2FF0AC0D9FF0BC0DAFF12C0DE
:10008000F3FF13C0F4FF14C0FAFF045006C0E0FFF2
:1000900005C0D8FF1000F2CF0DF0F29EF76AB00F46
:1000A000F66E000EF7220900F5500DBEF28E12001A
:1000B000280C01068350006E00380F0B016E1200F1
:1000C0000F0E9514F009956E8C8400008C80000052
:1000D000F1DF01C02CF08C9000008C800000EADF82
:1000E00001C02BF08C900F0E9514956E2C38006E7D
:1000F000F00E001600502B10016E12002C38F00B81
:10010000006E0F0E8C1400108C6E00008C8000D0DE
:100110008C9012009590959295948C92D1DF01C0AD
:100120002BF001BEFBD78C9229B08C8200008C94FE
:1001300000008C902A382B6E0F0E2B162BC02CF043
:10014000DDDF2A500F0B2B6E2C6ED8DF1200262C11
:1001500001D003D0400E276E01D0276A010E255C26
:10016000272627508009286E296A2A6ED3DF1200BD
:10017000EA6A250EE96EEF500EE0010E016E006A8C
:10018000002EFED7012EFBD74A0E006E002EFED7A2
:1001900000D0EF2EF2D712002450070A07E00B0A16
:1001A0000AE0060A10E0020A14E018D0010E256EDB
:1001B000266ECDDF18D0296A010E2A6EABDF020E43
:1001C000256ED6DF10D0010E256E020E266EBFDF23
:1001D0000AD0296A100E2A6E9DDF05D0010E296E05
:1001E00024C02AF097DF12009EAA0FD09EAAFED745
:1001F000AECF23F02350230804E10C0E246ECCDF95
:1002000003D023C024F0C8DFEFD79E9A2AEF00F076
:100210000C494E494349414E444F2E2E2E000F0E9D
:100220009514956E9590959295948C928C948C9053
:10023000166AF2BE168EF29E0F0E256E99DF16BE5E
:10024000F28E010E176E1750030814E3166AF2BE01
:10025000168EF29E030E2C6E51DF16BEF28E166ABB
:10026000F2BE168EF29E050E256E82DF16BEF28E4F
:10027000172AE9D7166AF2BE168EF29E020E2C6E6F
:100280003DDF16BEF28E166AF2BE168EF29E050E87
:10029000256E6EDF16BEF28E176A1750030814E340
:1002A000036A1750F2CF18F0F29EF5DE18BEF28EF8
:1002B000186E166AF2BE168EF29E296A2A6E2ADF20
:1002C00016BEF28E172AE9D791EF01F00900F55218
:1002D00012E0F6CF17F0F7CF18F0166AF2BE168EBE
:1002E000F29EF5CF24F058DF16BEF28E17C0F6FF4F
:1002F00018C0F7FFEBD799EF01F0F86AD09E078E90
:10030000600ED36ED350B896190EAF6EA60EAC6EBB
:10031000900EAB6EC150C00B0F09C16E070EB46ECC
:100320007ED7C00EF2129D8A100EF66E020EF76E88
:10033000CDD7040E176E166AF2BE168EF29EFA0E16
:10034000256E16DF16BEF28E172EF5D7FFD70300E7
:020000040030CA
:0E0000003FC93E1E0007A1000FC00FE00F40D9
:00000001FF
;PIC18F4550
;CRC=0D1A  CREATED="22-jul-18 12:50"
